:020000040800F2
:10000000080700205D010008C5110008D110000894
:1000100000000000000000000000000000000000E0
:10002000000000000000000000000000C9110008EE
:100030000000000000000000C7110008CB110008FC
:100040006F010008000000006F0100086F01000848
:100050006F0100086F0100086F010008FF01000830
:10006000000000006F0100086F0100086F01000828
:100070006F0100086F0100086F0100080000000018
:100080006F0100086F0100086F0100086F01000890
:100090006F0100086F0100086F0100086F01000880
:1000A0006F0100086F0100086F0100086F01000870
:1000B0006F0100086F01000800F002F800F03EF840
:1000C0000CA030C8083824182D18671EA246AB466D
:1000D00054465D46AC4201D100F030F87E460F3EFA
:1000E000B6460FCC0126334200D0FB1A3343A2465A
:1000F000AB4618474C1800006C180000103A02D3A9
:1001000078C878C1FAD8520701D330C830C101D5B8
:1001100004680C60704700000023002400250026BE
:10012000103A01D378C1FBD8520700D330C100D5B3
:100130000B6070471FB51FBD10B510BD00F02DF846
:100140001146FFF7F7FF01F011FA00F045F803B48C
:10015000FFF7F2FF03BC00F04BF8000007488047B0
:1001600007480047FEE7FEE7FEE7FEE7FEE7FEE79B
:1001700004480549054A064B70470000D3110008A2
:10018000B90000080801002008070020080300202B
:1001900008030020704770477047754600F024F848
:1001A000AE46050069465346C008C000854618B0F3
:1001B00020B5FFF7DDFF60BCB64600260027C0C5AE
:1001C000C0C5C0C5C0C5C0C5C0C5C0C5C0C5403D0F
:1001D000490849008D46704710B50446C046C046E0
:1001E0002046FFF7B4FF10BD004870471000002004
:1001F00001491820ABBEFEE726000200704780B51B
:100200000120400300F026F880BDEFF3108072B6A5
:10021000FEE70000B0B5044600F01AF90546601C80
:1002200002D0AD480078041900F012F9401BA0423A
:10023000FAD3B0BDB0B501256903794C204600F072
:10024000F1F8002800D0B0BD2903204600F0EFF8F7
:10025000B0BDC046B0B50446074D2868204203D063
:100260002C60204600F00AF86868204203D06C60D9
:100270002046FFF7DFFFB0BD0C18024070470000BA
:10028000F0B58AB00A68002A00D1BEE00E46604987
:10029000884201D0052100E0032100910027089742
:1002A00009973C46029601900FE01A432A60641CAD
:1002B00032681146E140BF1C089B1B1D0893099B37
:1002C00008330993002900D19FE001250495A5403A
:1002D0002A400792EBD003231846B840C043394662
:1002E00077683A461A40561E012E0697059112D895
:1002F00006460390019883683340029EF6688E405C
:100300001E438660FB06DB0FA3404668AE431E43D8
:100310004660039908E0032A0146019804D11A4671
:10032000029E069D059F1DE0C3680B40029EB568B6
:10033000059FBD401D43C560022A069D12D1039151
:100340001C21089A11400F228A40E3089B00C31821
:100350001D6A954332698A4003992A431A62756877
:1003600003222A40BA4003680B4013430360A903E9
:10037000890F9CD01821099A11400F238B4003222A
:1003800025469543234A5219156E9D436032052335
:100390001B0798420AD0214B984205D0204B984227
:1003A000009B04D1022302E0049B00E000238B4069
:1003B0002B431360174D2A687168CB0208D5079B41
:1003C0001A432A606A688B0208D4079B9A4307E0A5
:1003D000079B9A432A606A688B02F6D5079B1A43EB
:1003E0006A600D4D6A688B0306D5079B1A436A60E5
:1003F0002A68C90307D558E7079B9A436A602A68A9
:10040000C90300D551E79A4350E70AB0F0BDC04692
:10041000000C0050001802408018024000040050F8
:100420000008005000690840411E88417047426939
:100430000B4693430A401104C91881617047002A92
:1004400002D0182281507047282281507047000046
:10045000054800687047C0461F48007802490A688E
:10046000101808607047C0460401002010B5012430
:10047000200208490A6802430A60032000F00CF8D1
:10048000002801D0204610BD00F028F800242046A6
:1004900010BDC0460020024070B50F4E31780124D7
:1004A000002916D005467D20C00001F001F9014663
:1004B0004A48006801F0FCF800F0B8FC032D08D8A9
:1004C000002806D10024E0432946224600F02EF8F9
:1004D0007560204670BDC0460000002080B582B027
:1004E0000B4841680122114341604168114001916C
:1004F0000199110702680A430260006808400090F1
:1005000000980320400200F087FC02B080BDC04686
:100510003C100240002805D41F21084001218140E1
:10052000014801607047C04600E100E0002805D4A2
:100530000322034693430A4A9A1803E00C2202401E
:10054000064BD2188007C00E8901C9B28140FF2333
:1005500083401068984308431060704714ED00E032
:1005600000E400E0F0B581B0032569021A4E32467E
:10057000143A13688B430343136001246102002281
:10058000884226D1F94801683068400521D500929B
:10059000A70206204843124901F08AF8201A0228CF
:1005A00016D0316839420FD0012811D03168394254
:1005B0000AD000280CD03168394205D0001D03282C
:1005C00006D031683942EAD1009A104601B0F0BD38
:1005D0002A46104601B0F0BD14700040080000200B
:1005E00040420F00F0B587B081788907564F01D49B
:1005F00000254FE00590012319073A46183A106884
:100600000840049006D11068084310601068084044
:10061000069006980292039101931E024B4C2068AB
:1006200030432060FFF714FF0546206830420AD1AE
:10063000FFF70EFF401B0228F7D903250598049900
:10064000002922D026E003252902B868084011D0ED
:100650000599896988420BD0B86801990904BA687C
:100660000A43BA60BA688A43BA6039490840B86038
:10067000C00757D1BA6836480240059881691143CE
:10068000B96000250499002904D1029B1968039AD6
:10069000914319600668F10707D1B1070DD4B1067F
:1006A00013D4012172041AD428E03968032291433B
:1006B00042680A433A60B107F1D539680C22914388
:1006C00082680A433A60B106EBD5032109033A6810
:1006D0008A43C16811433960012172040ED53A681A
:1006E0001C4B1A40446922433A605A1C944205D17B
:1006F0000A043B46483B1C6814431C6032050ED577
:100700008C03032292033B689343026913433B60CB
:10071000A24204D10804483F3968014339602846A1
:1007200007B0F0BDFFF794FE0646864CB868800718
:10073000A0D4FFF78DFE801BA042F7D9059804993D
:100740000029A2D0A6E7C046541002400070004025
:10075000FFFCFFFFFFFFFF3FF0B583B00D46012117
:1007600000281BD0019102907548006807242040A2
:10077000A84216D272490868A04328430860714E07
:10078000FFF766FE07466E4800682040A84208D082
:10079000FFF75EFEC01BB042F5D90321084603B047
:1007A000F0BD029E30688107914B0CD5410703D5FF
:1007B00021031A680A431A600F2109021A688A4342
:1007C000B16811431960C0071BD15D480068204023
:1007D000A8422CD95A490868A04328430860594FB9
:1007E000FFF736FE0646564800682040A8421ED055
:1007F000FFF72EFE801BB842F5D90321084603B04F
:10080000F0BD0298406803285DD8810001A25158CC
:100810008F46C04625080008CB080008D508000808
:10082000DF080008194608390968490559E0029AA5
:10083000107840076E4B05D5200319688143D068B6
:100840000843186018688006400F22D01A683821C3
:100850000A406848082A23D01A680A40102A5ED144
:10086000596803220A40032A00D0634859684906A0
:10087000490F491C00F01CFF5D4949684904490EB5
:1008800048435B494968490F491C00F011FF584B28
:1008900006E01846083800688004410F5648C840F2
:1008A000196889093C220A40274989581F220A40B1
:1008B000D0402E49086025480068FFF7EDFD01464D
:1008C000084603B0F0BD596D0AE0194608390968B9
:1008D000890306E0194608390968890101E0996D24
:1008E0008907019900D459E71968A14301431960A8
:1008F000144FFFF7ADFD06463D4800683821014022
:1009000002984068C000814200D15EE7FFF7A0FD79
:10091000801BB842F0D90321084603B0F0BD186827
:100920000840202802D10120C003B9E71868084018
:10093000182801D00020B3E77D200002B0E7C046B0
:100940000020024088130000A818000804000020BE
:100950000648006826490968890A1C220A40044999
:1009600089581F220A40D0407047C0460800002026
:10097000E818000810B51E4C20688006400F06D00D
:10098000226838210A401B48082A07D110BD083CBC
:1009900020688004410F1848C84010BD22680A40F2
:1009A000102A15D1616803220A40032A00D0124898
:1009B00061684906490F491C00F07AFE61684904E4
:1009C000490E48436168490F491C00F071FE10BD93
:1009D00020680840202802D10120C00310BD2068F3
:1009E0000840182801D0002010BD7D20000210BD55
:1009F0000810024000127A000024F400F0B587B01D
:100A00000125002800D1ECE1049505900078C0078D
:100A1000F94F2AD0B868F96803252A468A43382155
:100A2000014010204840821850425041082914D0FB
:100A3000002812D105984268012001048A4208D09A
:100A400005231B049A4200D0DAE082043B6813437A
:100A50003B603A680A433A60DBE03868800304D5BB
:100A600005984068002800D173E105980078800758
:100A700023D40598007800070CD5B86838210140C8
:100A8000182971D1386E800704D50598806900282F
:100A900000D15EE1059A1078400700D42EE1B868D5
:100AA00038210140202974D1F86D800700D425E158
:100AB0009068002800D021E14BE1B9683820084057
:100AC00010214140FA6803252A4002235340CA18E6
:100AD00051425141002820D000291ED13868059A82
:100AE000D168002900D1A2E00721C9028843116919
:100AF00001433960012001023A680A433A608402E6
:100B0000FFF7A6FC06463868204200D0A1E0FFF7B8
:100B10009FFC801B0228F6D963E139684905059BD3
:100B200003D5D968002900D113E17F2109027A6831
:100B30008A43596909021143796000280DD10720C1
:100B4000C0023968814318690843386038688004F6
:100B5000400FAA49C140AA480160AA480068FFF7AF
:100B60009BFC002885D0F4E0386E0599896900293E
:100B700079D0012108433866FFF76AFC0646386ED3
:100B8000800787D4FFF764FC801B03250228F6D971
:100B900027E1012003900107F86B0840029006D17D
:100BA000F86B0843F863F86B0840069006980191CB
:100BB00095480068C00513D4039804029249086858
:100BC00020430860FFF744FC06468F480068204237
:100BD00006D1FFF73DFC801B03250228F5D900E173
:100BE00005988068894C012805D005285AD1F86DF0
:100BF00004210143F965F86D03990843F8655BE04A
:100C00003B688B433B6081043B688B433B60002A1D
:100C10003AD04404FFF71CFC06463868204200D056
:100C200023E7FFF715FC801B6428F6D9D9E00121E2
:100C30000A02904338608C02FFF70AFC06463868C7
:100C4000204200D115E7FFF703FC801B0228F6D9EC
:100C5000C7E07F200002796881430598406900025F
:100C60000843786005E7012188433866FFF7F0FB09
:100C70000646386E800700D40CE7FFF7E9FB801BBF
:100C800003250228F5D9ACE04404FFF7E1FB064652
:100C90003868204200D1E8E6FFF7DAFB801B6428C1
:100CA000F6D99EE0F96D039A9143F965F96D042236
:100CB0009143F96500280CD0FFF7CAFB0646F86D92
:100CC000800713D4FFF7C4FB801B0325A042F6D98D
:100CD00087E0FFF7BDFB0646F86D800706D5FFF7F6
:100CE000B7FB801B0325A042F6D97AE002980028C2
:100CF000059A03D1F86B01998843F863D469002CF5
:100D000076D0B86838210140102926D1012C20D096
:100D1000F86803210140059B1A6A914219D170219C
:100D200001405A6A914214D17F21090201409A6A16
:100D3000120291420DD11F2149040140DA6A914209
:100D4000049D4ED1072149070840196B884248D1BC
:100D50004EE0049D284607B0F0BD012529063868FD
:100D6000049188433860FFF773FB0646022C0BD1D1
:100D700003956C063868204211D0FFF769FB801B91
:100D800003250228F6D92CE06C06386820422BD0C7
:100D9000FFF75EFB801B03250228F6D921E0F868E7
:100DA0001C490140059E20366DCE084310431902B0
:100DB000014329433143F960386804990843386096
:100DC00003980007F9680143F960FFF741FB064605
:100DD000386820420CD1FFF73BFB801B032502281B
:100DE000F6D9284607B0F0BDF86809490140F96016
:100DF0000025284607B0F0BD001002400024F40092
:100E0000080000200400002000700040881300004B
:100E1000FCFFFEEF8C80C11F03214902024A1368C8
:100E20008B4303431360704700000140401E010ED6
:100E300001D0012070470749074A506007480368FE
:100E40000B40032189075918016000209060072199
:100E500011607047FFFFFF0010E000E020ED00E0B0
:100E6000B0B58421415C012901D10220B0BD024608
:100E700084322421516001680B680C680125AC4361
:100E80000C606C07A3430B600021416611702020A9
:100E900050600846B0BD0000F0B581B00546683529
:100EA0002A7F012A02D1022001B0F0BD24222A6249
:100EB0000668376832680124A2433260072252066E
:100EC000B36893430B43B360406E0028204615D0AF
:100ED0000097B768B068400F2B49095C2B4A105C3B
:100EE000C00000F0E5FB04463801009F400F264992
:100EF000095C264A105CC00000F0DAFB28806C8098
:100F00003760002028772021296201B0F0BDC0465B
:100F1000F0B581B0054668352A7F012A02D102204A
:100F200001B0F0BD24222A620668376832680124C5
:100F3000A243326007225207B36893430B43B36066
:100F4000406E0028204615D00097B768B068400F63
:100F50000D49095C0D4A105CC00000F0A9FB044675
:100F60003801009F400F0849095C084A105CC00026
:100F700000F09EFB28806C803760002028772021BD
:100F8000296201B0F0BDC0463819000830190008C8
:100F9000F0B583B0002841D004460746843778680E
:100FA000002804D100203870204600F059F8242091
:100FB0007860206801680125A9430160204600F09F
:100FC00073F9012827D0A06A002802D0204600F03B
:100FD00001F90920C00221684A6882434A60886892
:100FE0002A22904388600868012630430860002563
:100FF000FD60FFF72DFA034620680168090713D545
:1010000016480090710500222046029300F012FA63
:10101000002807D00325284603B0F0BD0125284647
:1010200003B0F0BD2068029B006840070CD50B4858
:101030000090B1050022204600F0FCF9002803D002
:101040000325284603B0F0BD20207860B860E5662F
:101050003D702567284603B0F0BDC046FFFFFF0185
:10106000B0B58EB0002408940794069405940494B7
:101070000068E749884201D00EB0B0BD0394012555
:10108000029502A8FFF7AEFA002801D0FFF7BDF8DD
:10109000A8033149CA680243CA60CA68024009927B
:1010A000099802200A900A6802430A600968014010
:1010B00001910D940C940B94C02009900198034861
:1010C00009A9FFF7DDF80EB0B0BDC046000400501E
:1010D000FEE70000F0B587B0002406941E480168C2
:1010E00004221143016001681140019101990168D6
:1010F0000125294301600168294001910199016896
:1011000002221143016000681040019001982F03F2
:10111000124E304639462246FFF791F90594049461
:101120000395029702AF30463946FFF7A9F80494B9
:101130002120000403906803029030463946FFF7EF
:101140009FF80726304629462246FFF7EFF930463A
:10115000FFF7E0F907B0F0BD34100240000800507E
:1011600010B5174800210C22A94B0162416281622F
:10117000E124640218C0016041608160C2600161C5
:1011800041610838FFF704FF002801D0FFF73DF860
:101190000B480021FFF7BCFE002801D0FFF735F80F
:1011A00007480021FFF778FE002801D0FFF72DF84F
:1011B0000348FFF755FE002801D0FFF726F810BDC1
:1011C00070000020FEE77047704780B5FFF744F9D4
:1011D00080BD7047B0B5816ACA070CD18A0714D4A4
:1011E0004A071CD40A0724D4CA062CD48A0634D44D
:1011F0004A063CD44CE00122520403685C689443E4
:10120000C26A22435A608A07EAD50122120403689F
:101210005C689443026B22435A604A07E2D501227C
:10122000920403685C689443426B22435A600A0745
:10123000DAD50122D20303685C689443826B2243AF
:101240005A60CA06D2D50122120303689C689443EF
:10125000C26B22439A608A06CAD5012252030368F0
:101260009C689443026C22439A604A0610D501227E
:101270001305026854689C43456C2C4354609D429E
:1012800006D103235B0554689C43836C234353605E
:10129000090607D50121C904026853688B43C06C55
:1012A00018435060B0BD0000F0B581B0044600683E
:1012B0000168534A0A40A16823690B4361691943D5
:1012C0001143E269114301600321090343688B4321
:1012D000E16819434160A169236A0B438168494D64
:1012E0000D401D438560C36A0F218B43616A0B4328
:1012F000C3620023444DA84206DC464DA84210D0EC
:10130000454DA84215D013E0404DA84211D0404BA6
:1013100098420DD1414800688007000F404B1B5890
:1013200007E03E4800680C2303403D48C35800E0F6
:101330001023264668360125EF033A48BA4210D1F9
:10134000082B55D87B441B795B009F4404512351E3
:101350001C5151512200FFF7FBFA002817D0616A97
:1013600018E0082B44D8C0467B441B795B009F449F
:10137000043F2D3F263F3F3F2C00FFF7E9FA0028AE
:1013800021D0616A22E0FFF7F5FA0028E7D10025B5
:101390002EE038464900244A515A00F089F94000AD
:1013A00061684A08101800F083F90246103A1F4994
:1013B0008A421DD201400007400F084315E0FFF7A5
:1013C000D9FA0028DDD1002512E038464900164A36
:1013D000515A00F06DF961684A08101800F068F978
:1013E00001461039114A914202D22168C860002595
:1013F0000F48306000206067A067284601B0F0BD4C
:10140000F369FFCFFFF4FF11FF4B0040004C004099
:1014100000380140004400400048004054100240A1
:10142000201900080024F40008190008F0FF00004B
:1014300001000100F0B587B015460E460446076866
:10144000F9693140891B4A424A410020AA4224D10D
:1014500006930494224684320C9C002C1FD0611CFD
:1014600044D1F9693140891B4A424A41AA4214D108
:10147000F9693140891B4A424A41AA420DD1F969B2
:101480003140891B4A424A41AA4206D1F96931409A
:10149000891B4A424A41AA42E3D007B0F0BD0392F9
:1014A000FEF7D6FF049FEFF31081012080F3108830
:1014B0000D2252013B681C6894431C6081F3108824
:1014C000EFF3108180F310883A6893688343936048
:1014D00081F310882020039A5060104608300021C4
:1014E000117020210160032007B0F0BD039202902B
:1014F00001200190C0020590049F06E0C0693040C1
:10150000801B41424141A9422DD1FEF7A1FF06991E
:10151000401AA042C7D8386801684907EED5C169AA
:10152000059A1142EAD005990162EFF31080019CFF
:1015300084F310880D2149013A6813688B431360C6
:1015400080F31088EFF3108084F3108839688A687C
:10155000A2438A6080F310882020039A5060906034
:1015600010460C30BBE7029807B0F0BD94B0FEF710
:101570007DFF00240D940C940B940A940994089414
:101580004B26F00002905838FEF7ECFF0125680763
:1015900013906804129008201190109402270F975E
:1015A0000E9740200C900B94B60030462C380A90D1
:1015B000079707A8FFF722FA002803D0EFF310805F
:1015C00072B6FEE70694059407200390049703A8DB
:1015D0003946FFF7C1F8002803D0EFF3108072B648
:1015E000FEE7FFF777FDFFF7BBFD2C462F032F4DDE
:1015F000284639462246FEF722FF3046FEF70AFE0D
:101600000022284639461546FEF719FF0298FEF7D4
:1016100001FE2648394622460194FEF710FF304667
:10162000FEF7F8FD214839462A46FEF708FF0298E2
:10163000FEF7F0FD1D4839462246FEF700FF304612
:10164000FEF7E8FD194839462A462C460095FEF774
:10165000F6FE029D2846FEF7DDFD14483946019A44
:10166000FEF7EDFE3046FEF7D5FD1048394622461E
:10167000FEF7E5FE2846FEF7CDFD0C483946019CF5
:101680002246FEF7DCFE3046FEF7C4FD074E30462C
:101690003946009AFEF7D3FE2846FEF7BBFD3046DA
:1016A00039462246FEF7CBFEFEE7C0460008005052
:1016B00043088B421AD3002203098B4279D3030AD1
:1016C0008B425ED3030B8B4242D3030C8B4227D356
:1016D0000902FF2212BA030C8B4202D31212090232
:1016E00003D0030B8B4233D31AE0D3E0411A80417D
:1016F000401C704703460B4371D443088B42F5D31B
:10170000002203098B4254D3030A8B4239D3030BC3
:101710008B421DD3030C8B4202D394466EE0090A20
:10172000C30B8B4201D3CB03C01A5241830B8B42B4
:1017300001D38B03C01A5241430B8B4201D34B039D
:10174000C01A5241030B8B4201D30B03C01A524102
:10175000C30A8B4201D3CB02C01A5241830A8B4287
:1017600001D38B02C01A5241430A8B4201D34B0270
:10177000C01A5241030A8B4201D30B02C01A5241D4
:10178000CDD2C3098B4201D3CB01C01A5241830988
:101790008B4201D38B01C01A524143098B4201D3C2
:1017A0004B01C01A524103098B4201D30B01C01AED
:1017B0005241C3088B4201D3CB00C01A5241830867
:1017C0008B4201D38B00C01A524143088B4201D394
:1017D0004B00C01A5241411A524110007047CA0FC3
:1017E00000D04942031000D34042534000229C469F
:1017F00003098B422DD3030A8B4212D38901FC22A9
:1018000012BA030A8B420CD3890192118B4208D37E
:10181000890192118B4204D3890137D0921100E0E3
:101820008909C3098B4201D3CB01C01A52418309F4
:101830008B4201D38B01C01A524143098B4201D321
:101840004B01C01A524103098B4201D30B01C01A4C
:101850005241C3088B4201D3CB00C01A52418308C6
:101860008B4201D38B00C01A5241D9D243088B421C
:1018700001D34B00C01A5241411A00D201465241D5
:10188000104663465B1000D34042704763465B10CE
:1018900000D3404201B50021004201D0C9430846AF
:1018A000C046C04602BD000000000000000000006D
:1018B0000000000000000000000000000000000028
:1018C0000000000000000000010000000200000015
:1018D00003000000040000000600000007000000F4
:1018E00008000000090000000000000000000000E7
:1018F00000000000000000000100000002000000E5
:1019000003000000040000000100020004000600C3
:1019100008000A000C0010002000400080000001B8
:1019200000000000040000000200000008000000A9
:10193000010101030701000008040204080101017C
:10194000601900080000002010000000FC000008E2
:101950007019000810000020F806000018010008A7
:1019600001000000040000000024F400000000005A
:04000005080000B936
:00000001FF
